:10000000362982000034B0340134033410341B34F8
:1000100008340834183406340534133401340334F6
:1000200010341B34063405341334013470340C346A
:100030003D340D340034153405340534133405349F
:100040000334013403340534013470340A340C347D
:100050001D3418340D34B0340534183400344034B1
:100060000D340C341D341134113408340634053485
:1000700008340D340C341D340F340D341F34133454
:1000800013340334013470340C34B0340334183472
:1000900018340A340C340D340C340A3408340A345D
:1000A000083406340534063405340334013401348D
:1000B00070340C340A3408340A340D340C34B0343F
:1000C0000334013405340334063415341134313427
:1000D000E0341034303400341034793428340A34A5
:1000E00038343834103479342134033431343134F1
:1000F0000034613421340334153411341534183488
:100100006D342D340C341D34183415341134363418
:100110002A34063415341834153411343334003489
:100120000034B034053415340334213470342834A9
:10013000183408341D34B0340534233413340334F4
:10014000113403342534253415340534063405348C
:100150000634283421341134013413340334033485
:100160000134033415340634153403342134703427
:1001700028341834B03405340634053406342834B1
:100180002134113405340634053403341534033472
:1001900021341134013470341B340F342D342D3498
:1001A0002D340034820702342F346B3490348207AC
:1001B0000034FF34F134E334D734CB34BF34B434B7
:1001C000AA34A13498348F3487348034793472342B
:1001D0008207C029C929CF29D429010D8E1FF228F1
:1001E000031C8D0A8E008E0C080014089800FB2852
:1001F0000310920C930C980BF828ED200D0890003A
:100200000E0891000C148C10103083168500831298
:1002100008000C1810291030831685008312352928
:10022000ED200D08100298000E081102031C98031F
:10023000981B26299808031D3529C039031D352927
:1002400064000108110280390319212902308C064B
:1002500010308C18003083168500831205121308A5
:1002600091070318900A12089007ED280C308500BA
:10027000103083168500831200308600803083168C
:100280008600831264000C3084008001840A5030A0
:100290000402031D452981018B016400013083168E
:1002A0008100831209210D080F39031D0C11031958
:1002B0000C1986290C154F30831686008312860090
:1002C000000006090F399800003086008030831640
:1002D000860083128C1D6F2903198C1186299808BA
:1002E000031986298F018F0A980C031C73290F03A9
:1002F000D22096000120960A0C138C040230940040
:10030000950197010C1685108C150C10ED20092114
:100310000C1EDC290D087F390C1B3F39031D8C1284
:1003200003198C1ADC298C16851015080319A329CA
:100330000F3903199D299503DC29950E9508031D96
:1003400095030C10DC29160801209500960A0F3938
:100350000319BA299201D72093009307920DF52033
:10036000950E15080339950D950D1506CF3995068F
:100370008514DC29950E1508950C950C0339E82891
:100380001708960097019608031DDA290C120C1025
:10039000DC2916089700970A01209600DA29033015
:1003A0009505950A0C10DC2903309505951C9503DD
:0C03B0001503940795018C12ED204D29D7
:02400E00F53F7C
:00000001FF
