:10000000B42928006300290020004D00610064002D
:100010004C006100620020003200300030003000EF
:100020008207F328F528FA2803292029762922298E
:10003000782924297A2926297C29A529AA29202A50
:10004000322A472A602A65309200010D8030031C55
:1000500086061F30031C8102920B252864000034A1
:100060008F0023208F0B312800341F30831685002A
:1000700083124A308316860083123130860019308D
:10008000302005111B308316850083120230831641
:1000900086008312861282308316810083128101CA
:1000A000643030200612C83030200C1200341F306B
:1000B0008316850083124A30831686008312A2308D
:1000C0008316810083128117313086001930302069
:1000D0000C1200341F308316850083124A308316B9
:1000E0008600831205151B30831685008312A2300B
:1000F0008316810083128117313086000230831607
:100100008600831286120A30302006150C169401E0
:10011000003493006400010D03188A28010D80301B
:10012000031C86061F30031C8102023083168600E2
:10013000831206308E000617930C031C86110318D9
:100140008615000006138E0B9B280034950196013E
:10015000AC28FF3095009600960D950D951316105E
:10016000023083168600831210308E000617950C1D
:10017000960C031C861103188615000006138E0BBF
:10018000B62800340A3083168600831210308E00A1
:10019000061700008615031086190314950C960C9B
:1001A00006138E0BC828950C960C95131513003466
:1001B00000308920A92800308920A92007308F002D
:1001C000063089208F0BE028003404308C1805306D
:1001D0008920C2208C18950116089B0703189A0ADB
:1001E00015089A0700348D01AE2901301F20003018
:1001F0001F20D229202013088D0003300D02FE306D
:100200000318AF29AE293520DB20013089200730C3
:100210008920083089200A303020013089200730B9
:10022000892009308920A920083089200A3030200F
:100230000B308920A920083089200A303020AE29CF
:1002400001302729023027290430272908308C045F
:100250000F3A8C048C0620201308900020201308ED
:10026000910035200C19DB208C19D82003011F20A8
:100270009A019B0120201308950097002020130865
:100280009600980002308C18033089208C18950154
:10029000AC20083089200A303020E52015081702EC
:1002A000031D542916081802FB30031DAF29063020
:1002B000892003011F20910803199003910310085E
:1002C0001104031D3A29202013089500202013084B
:1002D000960015081A02031D6F2916081B02FA3032
:1002E000031DAF29572003011F20D22901307D298A
:1002F00002307D2904307D2908308C040F3A8C04AB
:100300008C0620201308900020201308910035202F
:100310000C19DB208C19D82003011F209A019B01A6
:10032000E52015081F2016081F2006308920910897
:1003300003199003910310081104031D90295720FD
:100340001A081F201B081F20D22957206A200301EA
:100350001F20D229572003011F20D2290301990011
:10036000572019081F20D22900308500313086001F
:10037000572086140315861C0311031D2228023002
:100380008E0005151B308316850083120301302073
:100390001F30831685008312030130208E0BC12984
:1003A0008C01940185156400851D012A0C1EEB2922
:1003B0008514051485180613851C06178515640019
:1003C000851D012A0310051C0314940D94080319BC
:1003D0008611031D861586140315861C0311031947
:1003E000D2290C1EF5295720F6296A202830302002
:1003F00086140315861C0311031DF62928303020AE
:10040000D22921200E301302FF300318AF29130820
:100410001028000000000000000000000000003470
:1004200003309200152A09309200010D8030031C20
:1004300086061F30031C8102920B152A64000034CB
:100440000610930008308E0013220F22930C031C19
:1004500006100318061413228E0B262A06141322E4
:100460000B220034FA308E0047309200851564006C
:10047000851D472A010D8030031C86061F30031C92
:100480008102920B362A8E0B342AFD30AF290830B8
:100490008E0010220F228515000085195E2A132276
:1004A0008515031085190314930C8E0B4F2A132204
:1004B000000085150000851D5E2A0034FC30AF2940
:1004C00006100F22851500008519972A06140F22A1
:1004D00085150000851D972A3520D820043090000E
:1004E00002308920A920083089200A3030200430C9
:1004F0008920C22016090F39031D972A023089204E
:10050000A620083089200A30302004308920C220FB
:1005100016080F39031D972A06308920900B702A80
:10052000572005151B308316850083129C2A051160
:0C0530001B3083168500831264009C2A97
:084000000C000C00010000009F
:02400E00F53F7C
:00000001FF
