:10000000031E080086010D308C000D308400800135
:10001000840A8C0B07282C282120840007398406A9
:100020000310840C840C840C041A841704128A01B3
:10003000820701340234043408341034203440344C
:10004000803407398A018207303431343234333412
:100050003434353436343734FF3039218C01323082
:10006000D4200C08C4200C083D2118211A088C004B
:1000700000302921031D40280730242103192F288F
:100080008C013230D4200C08C0200C083D211821EE
:100090001A088C0000302921031D52280730242122
:1000A0000319412801308D008C010D088600323083
:1000B000D4200D083D210D0808211A088D000C08D8
:1000C0003D2118211A088C0000302921031D6C28BD
:1000D000073024210319552840308D00A420033017
:1000E0008D008C010D0886003230D4200D083D2192
:1000F0000D0808210130EA201A088D000C083D2166
:1001000018211A088C0000302921031D8B28063085
:100110002421031972287F308D00A4208C010C0843
:10012000CB208D000D0886009630D4200C083D2190
:1001300018211A088C0000302921031DA32818302B
:10014000242103198F282E288C010D0886003230B7
:10015000D4200D083D210230F1201A088D000C0832
:100160003D2118211A088C0000302921031DBC28CC
:10017000063024210319A52840290730E220BD2894
:100180000C20FF3A8005C8280C208004C728FF3ABD
:100190008417800540298900013E031940348316E5
:1001A00008148312080840299B019A001621640054
:1001B0001B081A0403190800F730FF3E031DDD2851
:1001C0001821D72883160739F83881006300FF30DB
:1001D000810040299D019C001C089A041D089B0475
:1001E00040299D019C001030A300A201A10103142D
:1001F0009A0D9B0DA10DA20D1C2121300B21031C7A
:100200001A101C2121301A1C0B21A30BF72840299E
:100210009D019C001A3084001C0880071D08840F73
:1002200000000318013E031C800740299B099A091E
:100230009A0A03199B0A080021219C0A03199D0AA6
:1002400040299D099C0940299D019C002E210139CE
:1002500040299D019C002E21043940291D081B02C4
:10026000031D36291C081A0203190234031C043426
:100270000134FF3A8316860040299B019A004029E9
:0602800083126400080077
:084000007F007F007F007F00BC
:04400E00F53F010079
:1042000000000F00F0003C00C30018003C007E00DE
:10421000FF00E700C30081000000030006000C005F
:1042200030006000C000600030000C000600030099
:0242300000008C
:00000001FF
